{
  "contractName": "RecordTracker",
  "abi": [
    {
      "anonymous": false,
      "inputs": [
        {
          "indexed": false,
          "internalType": "uint256",
          "name": "id",
          "type": "uint256"
        },
        {
          "indexed": false,
          "internalType": "string",
          "name": "add",
          "type": "string"
        },
        {
          "indexed": false,
          "internalType": "string",
          "name": "name",
          "type": "string"
        },
        {
          "indexed": false,
          "internalType": "string",
          "name": "pass",
          "type": "string"
        },
        {
          "indexed": false,
          "internalType": "bool",
          "name": "isDoctor",
          "type": "bool"
        }
      ],
      "name": "IdentityCreate",
      "type": "event"
    },
    {
      "anonymous": false,
      "inputs": [
        {
          "indexed": false,
          "internalType": "string",
          "name": "add",
          "type": "string"
        },
        {
          "indexed": false,
          "internalType": "string",
          "name": "name",
          "type": "string"
        },
        {
          "indexed": false,
          "internalType": "string",
          "name": "pass",
          "type": "string"
        }
      ],
      "name": "LogIn",
      "type": "event"
    },
    {
      "anonymous": false,
      "inputs": [
        {
          "indexed": false,
          "internalType": "string",
          "name": "addressed",
          "type": "string"
        }
      ],
      "name": "LogOut",
      "type": "event"
    },
    {
      "anonymous": false,
      "inputs": [
        {
          "indexed": false,
          "internalType": "string",
          "name": "add",
          "type": "string"
        },
        {
          "indexed": false,
          "internalType": "uint256",
          "name": "id",
          "type": "uint256"
        },
        {
          "indexed": false,
          "internalType": "uint256",
          "name": "time",
          "type": "uint256"
        },
        {
          "indexed": false,
          "internalType": "string",
          "name": "owner",
          "type": "string"
        },
        {
          "indexed": false,
          "internalType": "string",
          "name": "recordName",
          "type": "string"
        },
        {
          "indexed": false,
          "internalType": "string",
          "name": "desc",
          "type": "string"
        },
        {
          "indexed": false,
          "internalType": "string",
          "name": "ipfsInfo",
          "type": "string"
        }
      ],
      "name": "RecordCreate",
      "type": "event"
    },
    {
      "anonymous": false,
      "inputs": [
        {
          "indexed": false,
          "internalType": "string",
          "name": "adder",
          "type": "string"
        },
        {
          "indexed": false,
          "internalType": "uint256",
          "name": "ider",
          "type": "uint256"
        },
        {
          "indexed": false,
          "internalType": "string",
          "name": "sendUserName",
          "type": "string"
        }
      ],
      "name": "RecordShare",
      "type": "event"
    },
    {
      "constant": true,
      "inputs": [
        {
          "internalType": "uint256",
          "name": "",
          "type": "uint256"
        }
      ],
      "name": "IdentityStore",
      "outputs": [
        {
          "internalType": "string",
          "name": "add",
          "type": "string"
        },
        {
          "internalType": "string",
          "name": "name",
          "type": "string"
        },
        {
          "internalType": "string",
          "name": "pass",
          "type": "string"
        },
        {
          "internalType": "uint256",
          "name": "recordCount",
          "type": "uint256"
        },
        {
          "internalType": "bool",
          "name": "isLoggedIn",
          "type": "bool"
        },
        {
          "internalType": "bool",
          "name": "isDoctor",
          "type": "bool"
        }
      ],
      "payable": false,
      "stateMutability": "view",
      "type": "function"
    },
    {
      "constant": true,
      "inputs": [],
      "name": "identityCount",
      "outputs": [
        {
          "internalType": "uint256",
          "name": "",
          "type": "uint256"
        }
      ],
      "payable": false,
      "stateMutability": "view",
      "type": "function"
    },
    {
      "constant": false,
      "inputs": [
        {
          "internalType": "string",
          "name": "_add",
          "type": "string"
        },
        {
          "internalType": "string",
          "name": "_name",
          "type": "string"
        },
        {
          "internalType": "string",
          "name": "_pass",
          "type": "string"
        },
        {
          "internalType": "bool",
          "name": "_isDoctor",
          "type": "bool"
        }
      ],
      "name": "createIdentity",
      "outputs": [
        {
          "internalType": "uint256",
          "name": "",
          "type": "uint256"
        }
      ],
      "payable": false,
      "stateMutability": "nonpayable",
      "type": "function"
    },
    {
      "constant": false,
      "inputs": [
        {
          "internalType": "string",
          "name": "_add",
          "type": "string"
        },
        {
          "internalType": "string",
          "name": "_name",
          "type": "string"
        },
        {
          "internalType": "string",
          "name": "_pass",
          "type": "string"
        }
      ],
      "name": "logInIdentity",
      "outputs": [
        {
          "internalType": "uint256",
          "name": "",
          "type": "uint256"
        }
      ],
      "payable": false,
      "stateMutability": "nonpayable",
      "type": "function"
    },
    {
      "constant": false,
      "inputs": [
        {
          "internalType": "string",
          "name": "_adder",
          "type": "string"
        },
        {
          "internalType": "string",
          "name": "_ipfsInfo",
          "type": "string"
        },
        {
          "internalType": "string",
          "name": "_recordName",
          "type": "string"
        },
        {
          "internalType": "string",
          "name": "_desc",
          "type": "string"
        }
      ],
      "name": "createRecord",
      "outputs": [
        {
          "internalType": "uint256",
          "name": "",
          "type": "uint256"
        }
      ],
      "payable": false,
      "stateMutability": "nonpayable",
      "type": "function"
    },
    {
      "constant": false,
      "inputs": [
        {
          "internalType": "string",
          "name": "_addressed",
          "type": "string"
        }
      ],
      "name": "logOut",
      "outputs": [
        {
          "internalType": "uint256",
          "name": "",
          "type": "uint256"
        }
      ],
      "payable": false,
      "stateMutability": "nonpayable",
      "type": "function"
    },
    {
      "constant": true,
      "inputs": [
        {
          "internalType": "string",
          "name": "_ad",
          "type": "string"
        }
      ],
      "name": "getUsername",
      "outputs": [
        {
          "internalType": "string",
          "name": "",
          "type": "string"
        }
      ],
      "payable": false,
      "stateMutability": "view",
      "type": "function"
    },
    {
      "constant": true,
      "inputs": [
        {
          "internalType": "string",
          "name": "_ader",
          "type": "string"
        }
      ],
      "name": "getRecordCount",
      "outputs": [
        {
          "internalType": "uint256",
          "name": "",
          "type": "uint256"
        }
      ],
      "payable": false,
      "stateMutability": "view",
      "type": "function"
    },
    {
      "constant": true,
      "inputs": [
        {
          "internalType": "string",
          "name": "_adder",
          "type": "string"
        },
        {
          "internalType": "uint256",
          "name": "_ider",
          "type": "uint256"
        }
      ],
      "name": "getRecord",
      "outputs": [
        {
          "internalType": "string",
          "name": "",
          "type": "string"
        },
        {
          "internalType": "string",
          "name": "",
          "type": "string"
        },
        {
          "internalType": "string",
          "name": "",
          "type": "string"
        },
        {
          "internalType": "string",
          "name": "",
          "type": "string"
        }
      ],
      "payable": false,
      "stateMutability": "view",
      "type": "function"
    },
    {
      "constant": false,
      "inputs": [
        {
          "internalType": "string",
          "name": "_adder",
          "type": "string"
        },
        {
          "internalType": "uint256",
          "name": "_ider",
          "type": "uint256"
        },
        {
          "internalType": "string",
          "name": "_sendUserName",
          "type": "string"
        }
      ],
      "name": "shareRecord",
      "outputs": [
        {
          "internalType": "uint256",
          "name": "",
          "type": "uint256"
        }
      ],
      "payable": false,
      "stateMutability": "nonpayable",
      "type": "function"
    }
  ],
  "bytecode": "0x6080604052600060015534801561001557600080fd5b50613e1e806100256000396000f3fe608060405234801561001057600080fd5b506004361061009e5760003560e01c8063b8df43ae11610066578063b8df43ae14610791578063bc60f6a11461092d578063c3cef20a14610baf578063c69ef87714610c7e578063fe66d17814610e875761009e565b80632a086b8d146100a357806338678ba514610172578063482d1cc4146101905780636217a3b514610300578063b797dcb5146104fd575b600080fd5b61015c600480360360208110156100b957600080fd5b81019080803590602001906401000000008111156100d657600080fd5b8201836020820111156100e857600080fd5b8035906020019184600183028401116401000000008311171561010a57600080fd5b91908080601f016020809104026020016040519081016040528093929190818152602001838380828437600081840152601f19601f820116905080830192505050505050509192919290505050610fbb565b6040518082815260200191505060405180910390f35b61017a611135565b6040518082815260200191505060405180910390f35b6102ea600480360360608110156101a657600080fd5b81019080803590602001906401000000008111156101c357600080fd5b8201836020820111156101d557600080fd5b803590602001918460018302840111640100000000831117156101f757600080fd5b91908080601f016020809104026020016040519081016040528093929190818152602001838380828437600081840152601f19601f820116905080830192505050505050509192919290803590602001909291908035906020019064010000000081111561026457600080fd5b82018360208201111561027657600080fd5b8035906020019184600183028401116401000000008311171561029857600080fd5b91908080601f016020809104026020016040519081016040528093929190818152602001838380828437600081840152601f19601f82011690508083019250505050505050919291929050505061113b565b6040518082815260200191505060405180910390f35b6104e76004803603606081101561031657600080fd5b810190808035906020019064010000000081111561033357600080fd5b82018360208201111561034557600080fd5b8035906020019184600183028401116401000000008311171561036757600080fd5b91908080601f016020809104026020016040519081016040528093929190818152602001838380828437600081840152601f19601f820116905080830192505050505050509192919290803590602001906401000000008111156103ca57600080fd5b8201836020820111156103dc57600080fd5b803590602001918460018302840111640100000000831117156103fe57600080fd5b91908080601f016020809104026020016040519081016040528093929190818152602001838380828437600081840152601f19601f8201169050808301925050505050505091929192908035906020019064010000000081111561046157600080fd5b82018360208201111561047357600080fd5b8035906020019184600183028401116401000000008311171561049557600080fd5b91908080601f016020809104026020016040519081016040528093929190818152602001838380828437600081840152601f19601f820116905080830192505050505050509192919290505050611b22565b6040518082815260200191505060405180910390f35b61077b6004803603608081101561051357600080fd5b810190808035906020019064010000000081111561053057600080fd5b82018360208201111561054257600080fd5b8035906020019184600183028401116401000000008311171561056457600080fd5b91908080601f016020809104026020016040519081016040528093929190818152602001838380828437600081840152601f19601f820116905080830192505050505050509192919290803590602001906401000000008111156105c757600080fd5b8201836020820111156105d957600080fd5b803590602001918460018302840111640100000000831117156105fb57600080fd5b91908080601f016020809104026020016040519081016040528093929190818152602001838380828437600081840152601f19601f8201169050808301925050505050505091929192908035906020019064010000000081111561065e57600080fd5b82018360208201111561067057600080fd5b8035906020019184600183028401116401000000008311171561069257600080fd5b91908080601f016020809104026020016040519081016040528093929190818152602001838380828437600081840152601f19601f820116905080830192505050505050509192919290803590602001906401000000008111156106f557600080fd5b82018360208201111561070757600080fd5b8035906020019184600183028401116401000000008311171561072957600080fd5b91908080601f016020809104026020016040519081016040528093929190818152602001838380828437600081840152601f19601f820116905080830192505050505050509192919290505050611e35565b6040518082815260200191505060405180910390f35b6107bd600480360360208110156107a757600080fd5b81019080803590602001909291905050506122f1565b60405180806020018060200180602001878152602001861515151581526020018515151515815260200184810384528a818151815260200191508051906020019080838360005b8381101561081f578082015181840152602081019050610804565b50505050905090810190601f16801561084c5780820380516001836020036101000a031916815260200191505b50848103835289818151815260200191508051906020019080838360005b8381101561088557808201518184015260208101905061086a565b50505050905090810190601f1680156108b25780820380516001836020036101000a031916815260200191505b50848103825288818151815260200191508051906020019080838360005b838110156108eb5780820151818401526020810190506108d0565b50505050905090810190601f1680156109185780820380516001836020036101000a031916815260200191505b50995050505050505050505060405180910390f35b6109f06004803603604081101561094357600080fd5b810190808035906020019064010000000081111561096057600080fd5b82018360208201111561097257600080fd5b8035906020019184600183028401116401000000008311171561099457600080fd5b91908080601f016020809104026020016040519081016040528093929190818152602001838380828437600081840152601f19601f8201169050808301925050505050505091929192908035906020019092919050505061250f565b6040518080602001806020018060200180602001858103855289818151815260200191508051906020019080838360005b83811015610a3c578082015181840152602081019050610a21565b50505050905090810190601f168015610a695780820380516001836020036101000a031916815260200191505b50858103845288818151815260200191508051906020019080838360005b83811015610aa2578082015181840152602081019050610a87565b50505050905090810190601f168015610acf5780820380516001836020036101000a031916815260200191505b50858103835287818151815260200191508051906020019080838360005b83811015610b08578082015181840152602081019050610aed565b50505050905090810190601f168015610b355780820380516001836020036101000a031916815260200191505b50858103825286818151815260200191508051906020019080838360005b83811015610b6e578082015181840152602081019050610b53565b50505050905090810190601f168015610b9b5780820380516001836020036101000a031916815260200191505b509850505050505050505060405180910390f35b610c6860048036036020811015610bc557600080fd5b8101908080359060200190640100000000811115610be257600080fd5b820183602082011115610bf457600080fd5b80359060200191846001830284011164010000000083111715610c1657600080fd5b91908080601f016020809104026020016040519081016040528093929190818152602001838380828437600081840152601f19601f820116905080830192505050505050509192919290505050612960565b6040518082815260200191505060405180910390f35b610e7160048036036080811015610c9457600080fd5b8101908080359060200190640100000000811115610cb157600080fd5b820183602082011115610cc357600080fd5b80359060200191846001830284011164010000000083111715610ce557600080fd5b91908080601f016020809104026020016040519081016040528093929190818152602001838380828437600081840152601f19601f82011690508083019250505050505050919291929080359060200190640100000000811115610d4857600080fd5b820183602082011115610d5a57600080fd5b80359060200191846001830284011164010000000083111715610d7c57600080fd5b91908080601f016020809104026020016040519081016040528093929190818152602001838380828437600081840152601f19601f82011690508083019250505050505050919291929080359060200190640100000000811115610ddf57600080fd5b820183602082011115610df157600080fd5b80359060200191846001830284011164010000000083111715610e1357600080fd5b91908080601f016020809104026020016040519081016040528093929190818152602001838380828437600081840152601f19601f820116905080830192505050505050509192919290803515159060200190929190505050612aa5565b6040518082815260200191505060405180910390f35b610f4060048036036020811015610e9d57600080fd5b8101908080359060200190640100000000811115610eba57600080fd5b820183602082011115610ecc57600080fd5b80359060200191846001830284011164010000000083111715610eee57600080fd5b91908080601f016020809104026020016040519081016040528093929190818152602001838380828437600081840152601f19601f820116905080830192505050505050509192919290505050612e2e565b6040518080602001828103825283818151815260200191508051906020019080838360005b83811015610f80578082015181840152602081019050610f65565b50505050905090810190601f168015610fad5780820380516001836020036101000a031916815260200191505b509250505060405180910390f35b600080610fc78361300b565b90506001151560008083815260200190815260200160002060040160009054906101000a900460ff16151514611065576040517f08c379a00000000000000000000000000000000000000000000000000000000081526004018080602001828103825260148152602001807f506c65617365204c6f6720496e2046697273742100000000000000000000000081525060200191505060405180910390fd5b600080600083815260200190815260200160002060040160006101000a81548160ff0219169083151502179055507f3a218a1720d44ba58a2d37a6e09cb9756b037204eef0948f5ad5a6f4bad66948836040518080602001828103825283818151815260200191508051906020019080838360005b838110156110f55780820151818401526020810190506110da565b50505050905090810190601f1680156111225780820380516001836020036101000a031916815260200191505b509250505060405180910390a150919050565b60015481565b6000611146846131d7565b156111b9576040517f08c379a00000000000000000000000000000000000000000000000000000000081526004018080602001828103825260178152602001807f4164647265737320446f6573204e6f742045786973742100000000000000000081525060200191505060405180910390fd5b60606111c485612e2e565b905060006111d18661300b565b90506000808281526020019081526020016000206005016000868152602001908152602001600020600201604051602001808280546001816001161561010002031660029004801561125a5780601f1061123857610100808354040283529182019161125a565b820191906000526020600020905b815481529060010190602001808311611246575b505091505060405160208183030381529060405280519060200120826040516020018082805190602001908083835b602083106112ac5780518252602082019150602081019050602083039250611289565b6001836020036101000a038019825116818451168082178552505050505050905001915050604051602081830303815290604052805190602001201461135a576040517f08c379a00000000000000000000000000000000000000000000000000000000081526004018080602001828103825260168152602001807f596f7520617265206e6f7420746865206f776e65722e0000000000000000000081525060200191505060405180910390fd5b6001151560008083815260200190815260200160002060040160009054906101000a900460ff161515146113f6576040517f08c379a00000000000000000000000000000000000000000000000000000000081526004018080602001828103825260148152602001807f506c65617365204c6f6720496e2046697273742100000000000000000000000081525060200191505060405180910390fd5b6060611401856133a8565b905061140c816131d7565b1561147f576040517f08c379a00000000000000000000000000000000000000000000000000000000081526004018080602001828103825260178152602001807f4164647265737320446f6573204e6f742045786973742100000000000000000081525060200191505060405180910390fd5b600061148a8261300b565b9050856040516020018082805190602001908083835b602083106114c357805182526020820191506020810190506020830392506114a0565b6001836020036101000a03801982511681845116808217855250505050505090500191505060405160208183030381529060405280519060200120886040516020018082805190602001908083835b602083106115355780518252602082019150602081019050602083039250611512565b6001836020036101000a0380198251168184511680821785525050505050509050019150506040516020818303038152906040528051906020012014156115e4576040517f08c379a000000000000000000000000000000000000000000000000000000000815260040180806020018281038252601f8152602001807f43616e6e6f742053656e64205265636f726420546f20596f757273656c66210081525060200191505060405180910390fd5b6000808281526020019081526020016000206003016000815480929190600101919050555060008060008381526020019081526020016000206003015490506040518060c0016040528082815260200143815260200160008087815260200190815260200160002060050160008b81526020019081526020016000206002018054600181600116156101000203166002900480601f0160208091040260200160405190810160405280929190818152602001828054600181600116156101000203166002900480156116f75780601f106116cc576101008083540402835291602001916116f7565b820191906000526020600020905b8154815290600101906020018083116116da57829003601f168201915b5050505050815260200160008087815260200190815260200160002060050160008b81526020019081526020016000206003018054600181600116156101000203166002900480601f0160208091040260200160405190810160405280929190818152602001828054600181600116156101000203166002900480156117be5780601f10611793576101008083540402835291602001916117be565b820191906000526020600020905b8154815290600101906020018083116117a157829003601f168201915b5050505050815260200160008087815260200190815260200160002060050160008b81526020019081526020016000206004018054600181600116156101000203166002900480601f0160208091040260200160405190810160405280929190818152602001828054600181600116156101000203166002900480156118855780601f1061185a57610100808354040283529160200191611885565b820191906000526020600020905b81548152906001019060200180831161186857829003601f168201915b5050505050815260200160008087815260200190815260200160002060050160008b81526020019081526020016000206005018054600181600116156101000203166002900480601f01602080910402602001604051908101604052809291908181526020018280546001816001161561010002031660029004801561194c5780601f106119215761010080835404028352916020019161194c565b820191906000526020600020905b81548152906001019060200180831161192f57829003601f168201915b50505050508152506000808481526020019081526020016000206005016000838152602001908152602001600020600082015181600001556020820151816001015560408201518160020190805190602001906119aa929190613d0b565b5060608201518160030190805190602001906119c7929190613d0b565b5060808201518160040190805190602001906119e4929190613d0b565b5060a0820151816005019080519060200190611a01929190613d0b565b509050507f5cda285490daf4fa4138400dea6e3aa24950307b674d9c80571d29d87746c619898989604051808060200184815260200180602001838103835286818151815260200191508051906020019080838360005b83811015611a73578082015181840152602081019050611a58565b50505050905090810190601f168015611aa05780820380516001836020036101000a031916815260200191505b50838103825284818151815260200191508051906020019080838360005b83811015611ad9578082015181840152602081019050611abe565b50505050905090810190601f168015611b065780820380516001836020036101000a031916815260200191505b509550505050505060405180910390a150505050509392505050565b6000611b2d846131d7565b15611ba0576040517f08c379a00000000000000000000000000000000000000000000000000000000081526004018080602001828103825260178152602001807f4164647265737320446f6573204e6f742045786973742100000000000000000081525060200191505060405180910390fd5b611ba983613622565b15611c1c576040517f08c379a00000000000000000000000000000000000000000000000000000000081526004018080602001828103825260148152602001807f4e616d6520446f6573204e6f742045786973742100000000000000000000000081525060200191505060405180910390fd5b611c278484846137f3565b611c7c576040517f08c379a0000000000000000000000000000000000000000000000000000000008152600401808060200182810382526039815260200180613db16039913960400191505060405180910390fd5b6000611c878561300b565b9050600160008083815260200190815260200160002060040160006101000a81548160ff0219169083151502179055507f0b0365c24f419aeb7657449edae73136cc9f177e61ebcf76df29fb025f7c53a785858560405180806020018060200180602001848103845287818151815260200191508051906020019080838360005b83811015611d23578082015181840152602081019050611d08565b50505050905090810190601f168015611d505780820380516001836020036101000a031916815260200191505b50848103835286818151815260200191508051906020019080838360005b83811015611d89578082015181840152602081019050611d6e565b50505050905090810190601f168015611db65780820380516001836020036101000a031916815260200191505b50848103825285818151815260200191508051906020019080838360005b83811015611def578082015181840152602081019050611dd4565b50505050905090810190601f168015611e1c5780820380516001836020036101000a031916815260200191505b50965050505050505060405180910390a1509392505050565b6000611e40856131d7565b15611eb3576040517f08c379a00000000000000000000000000000000000000000000000000000000081526004018080602001828103825260178152602001807f4164647265737320446f6573204e6f742045786973742100000000000000000081525060200191505060405180910390fd5b6000611ebe8661300b565b90506001151560008083815260200190815260200160002060040160009054906101000a900460ff16151514611f5c576040517f08c379a00000000000000000000000000000000000000000000000000000000081526004018080602001828103825260148152602001807f506c65617365204c6f6720496e2046697273742100000000000000000000000081525060200191505060405180910390fd5b6000808281526020019081526020016000206003016000815480929190600101919050555060008060008381526020019081526020016000206003015490506060611fa688612e2e565b90506040518060c001604052808381526020014381526020018281526020018781526020018681526020018881525060008085815260200190815260200160002060050160008481526020019081526020016000206000820151816000015560208201518160010155604082015181600201908051906020019061202b929190613d0b565b506060820151816003019080519060200190612048929190613d0b565b506080820151816004019080519060200190612065929190613d0b565b5060a0820151816005019080519060200190612082929190613d0b565b509050507fac54b4153639b5a135fa7420710151ebcc9611bdf6cc3e2f62d6fc3a5ba96eab888343848a8a8d60405180806020018881526020018781526020018060200180602001806020018060200186810386528d818151815260200191508051906020019080838360005b8381101561210a5780820151818401526020810190506120ef565b50505050905090810190601f1680156121375780820380516001836020036101000a031916815260200191505b5086810385528a818151815260200191508051906020019080838360005b83811015612170578082015181840152602081019050612155565b50505050905090810190601f16801561219d5780820380516001836020036101000a031916815260200191505b50868103845289818151815260200191508051906020019080838360005b838110156121d65780820151818401526020810190506121bb565b50505050905090810190601f1680156122035780820380516001836020036101000a031916815260200191505b50868103835288818151815260200191508051906020019080838360005b8381101561223c578082015181840152602081019050612221565b50505050905090810190601f1680156122695780820380516001836020036101000a031916815260200191505b50868103825287818151815260200191508051906020019080838360005b838110156122a2578082015181840152602081019050612287565b50505050905090810190601f1680156122cf5780820380516001836020036101000a031916815260200191505b509c5050505050505050505050505060405180910390a1505050949350505050565b6000602052806000526040600020600091509050806000018054600181600116156101000203166002900480601f01602080910402602001604051908101604052809291908181526020018280546001816001161561010002031660029004801561239d5780601f106123725761010080835404028352916020019161239d565b820191906000526020600020905b81548152906001019060200180831161238057829003601f168201915b505050505090806001018054600181600116156101000203166002900480601f01602080910402602001604051908101604052809291908181526020018280546001816001161561010002031660029004801561243b5780601f106124105761010080835404028352916020019161243b565b820191906000526020600020905b81548152906001019060200180831161241e57829003601f168201915b505050505090806002018054600181600116156101000203166002900480601f0160208091040260200160405190810160405280929190818152602001828054600181600116156101000203166002900480156124d95780601f106124ae576101008083540402835291602001916124d9565b820191906000526020600020905b8154815290600101906020018083116124bc57829003601f168201915b5050505050908060030154908060040160009054906101000a900460ff16908060040160019054906101000a900460ff16905086565b60608060608061251e866131d7565b15612591576040517f08c379a00000000000000000000000000000000000000000000000000000000081526004018080602001828103825260178152602001807f4164647265737320446f6573204e6f742045786973742100000000000000000081525060200191505060405180910390fd5b600061259c8761300b565b90506001151560008083815260200190815260200160002060040160009054906101000a900460ff1615151461263a576040517f08c379a00000000000000000000000000000000000000000000000000000000081526004018080602001828103825260148152602001807f506c65617365204c6f6720496e2046697273742100000000000000000000000081525060200191505060405180910390fd5b60008082815260200190815260200160002060050160008781526020019081526020016000206002016000808381526020019081526020016000206005016000888152602001908152602001600020600301600080848152602001908152602001600020600501600089815260200190815260200160002060040160008085815260200190815260200160002060050160008a8152602001908152602001600020600501838054600181600116156101000203166002900480601f0160208091040260200160405190810160405280929190818152602001828054600181600116156101000203166002900480156127735780601f1061274857610100808354040283529160200191612773565b820191906000526020600020905b81548152906001019060200180831161275657829003601f168201915b50505050509350828054600181600116156101000203166002900480601f01602080910402602001604051908101604052809291908181526020018280546001816001161561010002031660029004801561280f5780601f106127e45761010080835404028352916020019161280f565b820191906000526020600020905b8154815290600101906020018083116127f257829003601f168201915b50505050509250818054600181600116156101000203166002900480601f0160208091040260200160405190810160405280929190818152602001828054600181600116156101000203166002900480156128ab5780601f10612880576101008083540402835291602001916128ab565b820191906000526020600020905b81548152906001019060200180831161288e57829003601f168201915b50505050509150808054600181600116156101000203166002900480601f0160208091040260200160405190810160405280929190818152602001828054600181600116156101000203166002900480156129475780601f1061291c57610100808354040283529160200191612947565b820191906000526020600020905b81548152906001019060200180831161292a57829003601f168201915b5050505050905094509450945094505092959194509250565b600061296b826131d7565b156129de576040517f08c379a00000000000000000000000000000000000000000000000000000000081526004018080602001828103825260178152602001807f4164647265737320446f6573204e6f742045786973742100000000000000000081525060200191505060405180910390fd5b60006129e98361300b565b90506001151560008083815260200190815260200160002060040160009054906101000a900460ff16151514612a87576040517f08c379a00000000000000000000000000000000000000000000000000000000081526004018080602001828103825260148152602001807f506c65617365204c6f6720496e2046697273742100000000000000000000000081525060200191505060405180910390fd5b60008082815260200190815260200160002060030154915050919050565b6000612ab0856131d7565b612b22576040517f08c379a00000000000000000000000000000000000000000000000000000000081526004018080602001828103825260178152602001807f4164647265737320416c7265616479204578697374732100000000000000000081525060200191505060405180910390fd5b612b2b84613622565b612b9d576040517f08c379a00000000000000000000000000000000000000000000000000000000081526004018080602001828103825260188152602001807f55736572204e616d6520416c72656164792054616b656e21000000000000000081525060200191505060405180910390fd5b6001600081548092919060010191905055506040518060c001604052808681526020018581526020018481526020016000815260200160011515815260200183151581525060008060015481526020019081526020016000206000820151816000019080519060200190612c12929190613d0b565b506020820151816001019080519060200190612c2f929190613d0b565b506040820151816002019080519060200190612c4c929190613d0b565b506060820151816003015560808201518160040160006101000a81548160ff02191690831515021790555060a08201518160040160016101000a81548160ff0219169083151502179055509050507f9d9904bda864774357f0872c99a670c668ba10e89b08f76a945b247cd3b8a509600154868686866040518086815260200180602001806020018060200185151515158152602001848103845288818151815260200191508051906020019080838360005b83811015612d1a578082015181840152602081019050612cff565b50505050905090810190601f168015612d475780820380516001836020036101000a031916815260200191505b50848103835287818151815260200191508051906020019080838360005b83811015612d80578082015181840152602081019050612d65565b50505050905090810190601f168015612dad5780820380516001836020036101000a031916815260200191505b50848103825286818151815260200191508051906020019080838360005b83811015612de6578082015181840152602081019050612dcb565b50505050905090810190601f168015612e135780820380516001836020036101000a031916815260200191505b509850505050505050505060405180910390a1949350505050565b6060612e39826131d7565b15612eac576040517f08c379a00000000000000000000000000000000000000000000000000000000081526004018080602001828103825260178152602001807f4164647265737320446f6573204e6f742045786973742100000000000000000081525060200191505060405180910390fd5b6000612eb78361300b565b90506001151560008083815260200190815260200160002060040160009054906101000a900460ff16151514612f55576040517f08c379a00000000000000000000000000000000000000000000000000000000081526004018080602001828103825260148152602001807f506c65617365204c6f6720496e2046697273742100000000000000000000000081525060200191505060405180910390fd5b6000808281526020019081526020016000206001018054600181600116156101000203166002900480601f016020809104026020016040519081016040528092919081815260200182805460018160011615610100020316600290048015612ffe5780601f10612fd357610100808354040283529160200191612ffe565b820191906000526020600020905b815481529060010190602001808311612fe157829003601f168201915b5050505050915050919050565b600080600190505b60015481116131d05760606000808381526020019081526020016000206000018054600181600116156101000203166002900480601f0160208091040260200160405190810160405280929190818152602001828054600181600116156101000203166002900480156130c75780601f1061309c576101008083540402835291602001916130c7565b820191906000526020600020905b8154815290600101906020018083116130aa57829003601f168201915b50505050509050836040516020018082805190602001908083835b6020831061310557805182526020820191506020810190506020830392506130e2565b6001836020036101000a03801982511681845116808217855250505050505090500191505060405160208183030381529060405280519060200120816040516020018082805190602001908083835b602083106131775780518252602082019150602081019050602083039250613154565b6001836020036101000a0380198251168184511680821785525050505050509050019150506040516020818303038152906040528051906020012014156131c25781925050506131d2565b508080600101915050613013565b505b919050565b600080600190505b600154811161339d5760606000808381526020019081526020016000206000018054600181600116156101000203166002900480601f0160208091040260200160405190810160405280929190818152602001828054600181600116156101000203166002900480156132935780601f1061326857610100808354040283529160200191613293565b820191906000526020600020905b81548152906001019060200180831161327657829003601f168201915b50505050509050836040516020018082805190602001908083835b602083106132d157805182526020820191506020810190506020830392506132ae565b6001836020036101000a03801982511681845116808217855250505050505090500191505060405160208183030381529060405280519060200120816040516020018082805190602001908083835b602083106133435780518252602082019150602081019050602083039250613320565b6001836020036101000a03801982511681845116808217855250505050505090500191505060405160208183030381529060405280519060200120141561338f576000925050506133a3565b5080806001019150506131df565b50600190505b919050565b60606000600190505b600154811161361b5760606000808381526020019081526020016000206001018054600181600116156101000203166002900480601f0160208091040260200160405190810160405280929190818152602001828054600181600116156101000203166002900480156134655780601f1061343a57610100808354040283529160200191613465565b820191906000526020600020905b81548152906001019060200180831161344857829003601f168201915b50505050509050836040516020018082805190602001908083835b602083106134a35780518252602082019150602081019050602083039250613480565b6001836020036101000a03801982511681845116808217855250505050505090500191505060405160208183030381529060405280519060200120816040516020018082805190602001908083835b6020831061351557805182526020820191506020810190506020830392506134f2565b6001836020036101000a03801982511681845116808217855250505050505090500191505060405160208183030381529060405280519060200120141561360d576000808381526020019081526020016000206000018054600181600116156101000203166002900480601f0160208091040260200160405190810160405280929190818152602001828054600181600116156101000203166002900480156135ff5780601f106135d4576101008083540402835291602001916135ff565b820191906000526020600020905b8154815290600101906020018083116135e257829003601f168201915b50505050509250505061361d565b5080806001019150506133b1565b505b919050565b600080600190505b60015481116137e85760606000808381526020019081526020016000206001018054600181600116156101000203166002900480601f0160208091040260200160405190810160405280929190818152602001828054600181600116156101000203166002900480156136de5780601f106136b3576101008083540402835291602001916136de565b820191906000526020600020905b8154815290600101906020018083116136c157829003601f168201915b50505050509050836040516020018082805190602001908083835b6020831061371c57805182526020820191506020810190506020830392506136f9565b6001836020036101000a03801982511681845116808217855250505050505090500191505060405160208183030381529060405280519060200120816040516020018082805190602001908083835b6020831061378e578051825260208201915060208101905060208303925061376b565b6001836020036101000a0380198251168184511680821785525050505050509050019150506040516020818303038152906040528051906020012014156137da576000925050506137ee565b50808060010191505061362a565b50600190505b919050565b600080600190505b6001548111613cfe5760606000808381526020019081526020016000206000018054600181600116156101000203166002900480601f0160208091040260200160405190810160405280929190818152602001828054600181600116156101000203166002900480156138af5780601f10613884576101008083540402835291602001916138af565b820191906000526020600020905b81548152906001019060200180831161389257829003601f168201915b50505050509050856040516020018082805190602001908083835b602083106138ed57805182526020820191506020810190506020830392506138ca565b6001836020036101000a03801982511681845116808217855250505050505090500191505060405160208183030381529060405280519060200120816040516020018082805190602001908083835b6020831061395f578051825260208201915060208101905060208303925061393c565b6001836020036101000a038019825116818451168082178552505050505050905001915050604051602081830303815290604052805190602001201415613cf05760606000808481526020019081526020016000206001018054600181600116156101000203166002900480601f016020809104026020016040519081016040528092919081815260200182805460018160011615610100020316600290048015613a4b5780601f10613a2057610100808354040283529160200191613a4b565b820191906000526020600020905b815481529060010190602001808311613a2e57829003601f168201915b5050505050905060606000808581526020019081526020016000206002018054600181600116156101000203166002900480601f016020809104026020016040519081016040528092919081815260200182805460018160011615610100020316600290048015613afd5780601f10613ad257610100808354040283529160200191613afd565b820191906000526020600020905b815481529060010190602001808311613ae057829003601f168201915b50505050509050866040516020018082805190602001908083835b60208310613b3b5780518252602082019150602081019050602083039250613b18565b6001836020036101000a03801982511681845116808217855250505050505090500191505060405160208183030381529060405280519060200120826040516020018082805190602001908083835b60208310613bad5780518252602082019150602081019050602083039250613b8a565b6001836020036101000a03801982511681845116808217855250505050505090500191505060405160208183030381529060405280519060200120148015613cd65750856040516020018082805190602001908083835b60208310613c275780518252602082019150602081019050602083039250613c04565b6001836020036101000a03801982511681845116808217855250505050505090500191505060405160208183030381529060405280519060200120816040516020018082805190602001908083835b60208310613c995780518252602082019150602081019050602083039250613c76565b6001836020036101000a03801982511681845116808217855250505050505090500191505060405160208183030381529060405280519060200120145b15613ce8576001945050505050613d04565b505050613cfe565b5080806001019150506137fb565b50600090505b9392505050565b828054600181600116156101000203166002900490600052602060002090601f016020900481019282601f10613d4c57805160ff1916838001178555613d7a565b82800160010185558215613d7a579182015b82811115613d79578251825591602001919060010190613d5e565b5b509050613d879190613d8b565b5090565b613dad91905b80821115613da9576000816000905550600101613d91565b5090565b9056fe50726f7669646564204e616d6520416e6420456d61696c20446f204e6f742042656c6f6e6720546f2043757272656e74204164647265737321a265627a7a72315820dcb6525f1de70707b97bc4f3bc45452a6991aaaab6b6598bf8e66a7eb296756964736f6c63430005100032",
  "source": "pragma solidity >=0.4.21 <0.7.0;\r\nimport \"./RecordLibrary.sol\";\r\n\r\ncontract RecordTracker {\r\n\r\n    mapping(uint => RecordLibrary.Identity) public IdentityStore;\r\n    uint256 public identityCount= 0;\r\n\r\n    function createIdentity(string memory _add, string memory _name, string memory _pass, bool _isDoctor) public returns (uint256)\r\n    {\r\n        require(canAddExist(_add), \"Address Already Exists!\");\r\n        require(canNameExist(_name), \"User Name Already Taken!\");\r\n        identityCount++;\r\n        IdentityStore[identityCount] = RecordLibrary.Identity(_add,_name,_pass,0,true,_isDoctor);\r\n        emit IdentityCreate(identityCount,_add,_name,_pass,_isDoctor);\r\n    }\r\n\r\n    function logInIdentity(string memory _add, string memory _name, string memory _pass) public returns (uint256)\r\n    {\r\n        require(!canAddExist(_add), \"Address Does Not Exist!\");\r\n        require(!canNameExist(_name), \"Name Does Not Exist!\");\r\n        require(doesAccExist(_add,_name,_pass), \"Provided Name And Email Do Not Belong To Current Address!\");\r\n        uint ind = getAddIndex(_add);\r\n        IdentityStore[ind].isLoggedIn = true;\r\n        emit LogIn(_add,_name,_pass);\r\n    }\r\n\r\n    function createRecord(string memory _adder, string memory _ipfsInfo, string memory _recordName, string memory _desc) public returns(uint256)\r\n    {\r\n        require(!canAddExist(_adder), \"Address Does Not Exist!\");\r\n        uint index = getAddIndex(_adder);\r\n        require(IdentityStore[index].isLoggedIn == true, \"Please Log In First!\");\r\n        IdentityStore[index].recordCount++;\r\n        uint recordIndex = IdentityStore[index].recordCount;\r\n        string memory _owner = getUsername(_adder);\r\n        IdentityStore[index].record[recordIndex] = RecordLibrary.Record(recordIndex,block.number,_owner,_recordName,_desc,_ipfsInfo);\r\n        emit RecordCreate(_adder,recordIndex,block.number,_owner,_recordName,_desc,_ipfsInfo);\r\n    }\r\n\r\n    function doesAccExist(string memory _adder, string memory _namer, string memory _passer) private view returns (bool)\r\n    {\r\n        for(uint i = 1;i<=identityCount;i++)\r\n        {\r\n            string memory acc = IdentityStore[i].add;\r\n            if(keccak256(abi.encodePacked((acc))) == keccak256(abi.encodePacked((_adder))))\r\n            {\r\n                string memory name1 = IdentityStore[i].name;\r\n                string memory email1 = IdentityStore[i].pass;\r\n                if((keccak256(abi.encodePacked((name1))) == keccak256(abi.encodePacked((_namer))))&&(keccak256(abi.encodePacked((email1))) == keccak256(abi.encodePacked((_passer)))))\r\n                {\r\n                    return true;\r\n                }\r\n                break;\r\n            }\r\n        }\r\n        return false;\r\n    }\r\n\r\n    function getAddFromName(string memory _userNamer) private view returns (string memory)\r\n    {\r\n        for(uint i = 1;i<=identityCount;i++)\r\n        {\r\n            string memory acc = IdentityStore[i].name;\r\n            if(keccak256(abi.encodePacked((acc))) == keccak256(abi.encodePacked((_userNamer))))\r\n            {\r\n                return IdentityStore[i].add;\r\n            }\r\n        }\r\n    }\r\n\r\n    function getAddIndex(string memory _adder) private view returns (uint)\r\n    {\r\n        for(uint i = 1;i<=identityCount;i++)\r\n        {\r\n            string memory acc = IdentityStore[i].add;\r\n            if(keccak256(abi.encodePacked((acc))) == keccak256(abi.encodePacked((_adder))))\r\n            {\r\n                return i;\r\n            }\r\n        }\r\n    }\r\n\r\n    function canAddExist(string memory _adder) private view returns (bool)\r\n    {\r\n        for(uint i = 1;i<=identityCount;i++)\r\n        {\r\n            string memory acc = IdentityStore[i].add;\r\n            if(keccak256(abi.encodePacked((acc))) == keccak256(abi.encodePacked((_adder))))\r\n            {\r\n                return false;\r\n            }\r\n        }\r\n        return true;\r\n    }\r\n\r\n    function canNameExist(string memory _namer) private view returns (bool)\r\n    {\r\n        for(uint i = 1;i<=identityCount;i++)\r\n        {\r\n            string memory acc1 = IdentityStore[i].name;\r\n            if(keccak256(abi.encodePacked((acc1))) == keccak256(abi.encodePacked((_namer))))\r\n            {\r\n                return false;\r\n            }\r\n        }\r\n        return true;\r\n    }\r\n\r\n    function logOut(string memory _addressed) public returns (uint256)\r\n    {\r\n        uint index = getAddIndex(_addressed);\r\n        require(IdentityStore[index].isLoggedIn == true, \"Please Log In First!\");\r\n        IdentityStore[index].isLoggedIn = false;\r\n        emit LogOut(_addressed);\r\n    }\r\n\r\n    function getUsername(string memory _ad) public view returns (string memory)\r\n    {\r\n        require(!canAddExist(_ad), \"Address Does Not Exist!\");\r\n        uint indexer = getAddIndex(_ad);\r\n        require(IdentityStore[indexer].isLoggedIn == true, \"Please Log In First!\");\r\n        return IdentityStore[indexer].name;\r\n    }\r\n\r\n    function getRecordCount(string memory _ader) public view returns (uint)\r\n    {\r\n        require(!canAddExist(_ader), \"Address Does Not Exist!\");\r\n        uint indexer = getAddIndex(_ader);\r\n        require(IdentityStore[indexer].isLoggedIn == true, \"Please Log In First!\");\r\n        return IdentityStore[indexer].recordCount;\r\n    }\r\n\r\n    function getRecord(string memory _adder, uint _ider) public view returns (string memory, string memory, string memory, string memory)\r\n    {\r\n        require(!canAddExist(_adder), \"Address Does Not Exist!\");\r\n        uint indexer = getAddIndex(_adder);\r\n        require(IdentityStore[indexer].isLoggedIn == true, \"Please Log In First!\");\r\n        return(IdentityStore[indexer].record[_ider].owner,\r\n            IdentityStore[indexer].record[_ider].recordName,\r\n            IdentityStore[indexer].record[_ider].desc,\r\n            IdentityStore[indexer].record[_ider].ipfsInfo);\r\n    }\r\n\r\n    function shareRecord(string memory _adder, uint _ider, string memory _sendUserName) public returns (uint256)\r\n    {\r\n        require(!canAddExist(_adder), \"Address Does Not Exist!\");\r\n        string memory _own = getUsername(_adder);\r\n        uint indexer = getAddIndex(_adder);\r\n        require(keccak256(abi.encodePacked((_own))) == keccak256(abi.encodePacked((IdentityStore[indexer].record[_ider].owner))),\"You are not the owner.\");\r\n        require(IdentityStore[indexer].isLoggedIn == true, \"Please Log In First!\");\r\n        string memory addSend = getAddFromName(_sendUserName);\r\n        require(!canAddExist(addSend), \"Address Does Not Exist!\");\r\n        uint indexee = getAddIndex(addSend);\r\n        require(keccak256(abi.encodePacked((_adder))) != keccak256(abi.encodePacked((_sendUserName))), \"Cannot Send Record To Yourself!\");\r\n        IdentityStore[indexee].recordCount++;\r\n        uint recordIndexee = IdentityStore[indexee].recordCount;\r\n        IdentityStore[indexee].record[recordIndexee] = RecordLibrary.Record(recordIndexee,block.number,\r\n        IdentityStore[indexer].record[_ider].owner,\r\n        IdentityStore[indexer].record[_ider].recordName,\r\n        IdentityStore[indexer].record[_ider].desc,\r\n        IdentityStore[indexer].record[_ider].ipfsInfo);\r\n        emit RecordShare(_adder,_ider,_sendUserName);\r\n    }\r\n\r\n    event RecordShare(string adder,uint ider,string sendUserName);\r\n    event LogOut(string addressed);\r\n    event IdentityCreate(uint id, string add, string name, string pass, bool isDoctor);\r\n    event LogIn(string add, string name, string pass);\r\n    event RecordCreate(string add,uint id, uint time, string owner, string recordName, string desc, string ipfsInfo);\r\n}",
  "sourcePath": "D:/MedicalRecord/contracts/RecordTracker.sol",
  "compiler": {
    "name": "solc",
    "version": "0.5.16+commit.9c3226ce.Emscripten.clang"
  },
  "schemaVersion": "3.3.4",
  "updatedAt": "2021-06-16T08:35:20.330Z",
  "networkType": "ethereum",
  "devdoc": {
    "methods": {}
  },
  "userdoc": {
    "methods": {}
  }
}