{
  "contractName": "RecordTracker",
  "abi": [
    {
      "constant": true,
      "inputs": [],
      "name": "identityCount",
      "outputs": [
        {
          "name": "",
          "type": "uint256"
        }
      ],
      "payable": false,
      "stateMutability": "view",
      "type": "function",
      "signature": "0x38678ba5"
    },
    {
      "constant": true,
      "inputs": [
        {
          "name": "",
          "type": "uint256"
        }
      ],
      "name": "IdentityStore",
      "outputs": [
        {
          "name": "add",
          "type": "string"
        },
        {
          "name": "name",
          "type": "string"
        },
        {
          "name": "pass",
          "type": "string"
        },
        {
          "name": "recordCount",
          "type": "uint256"
        },
        {
          "name": "isLoggedIn",
          "type": "bool"
        },
        {
          "name": "isDoctor",
          "type": "bool"
        }
      ],
      "payable": false,
      "stateMutability": "view",
      "type": "function",
      "signature": "0xb8df43ae"
    },
    {
      "anonymous": false,
      "inputs": [
        {
          "indexed": false,
          "name": "adder",
          "type": "string"
        },
        {
          "indexed": false,
          "name": "ider",
          "type": "uint256"
        },
        {
          "indexed": false,
          "name": "sendUserName",
          "type": "string"
        }
      ],
      "name": "RecordShare",
      "type": "event",
      "signature": "0x5cda285490daf4fa4138400dea6e3aa24950307b674d9c80571d29d87746c619"
    },
    {
      "anonymous": false,
      "inputs": [
        {
          "indexed": false,
          "name": "addressed",
          "type": "string"
        }
      ],
      "name": "LogOut",
      "type": "event",
      "signature": "0x3a218a1720d44ba58a2d37a6e09cb9756b037204eef0948f5ad5a6f4bad66948"
    },
    {
      "anonymous": false,
      "inputs": [
        {
          "indexed": false,
          "name": "id",
          "type": "uint256"
        },
        {
          "indexed": false,
          "name": "add",
          "type": "string"
        },
        {
          "indexed": false,
          "name": "name",
          "type": "string"
        },
        {
          "indexed": false,
          "name": "pass",
          "type": "string"
        },
        {
          "indexed": false,
          "name": "isDoctor",
          "type": "bool"
        }
      ],
      "name": "IdentityCreate",
      "type": "event",
      "signature": "0x9d9904bda864774357f0872c99a670c668ba10e89b08f76a945b247cd3b8a509"
    },
    {
      "anonymous": false,
      "inputs": [
        {
          "indexed": false,
          "name": "add",
          "type": "string"
        },
        {
          "indexed": false,
          "name": "name",
          "type": "string"
        },
        {
          "indexed": false,
          "name": "pass",
          "type": "string"
        }
      ],
      "name": "LogIn",
      "type": "event",
      "signature": "0x0b0365c24f419aeb7657449edae73136cc9f177e61ebcf76df29fb025f7c53a7"
    },
    {
      "anonymous": false,
      "inputs": [
        {
          "indexed": false,
          "name": "add",
          "type": "string"
        },
        {
          "indexed": false,
          "name": "id",
          "type": "uint256"
        },
        {
          "indexed": false,
          "name": "time",
          "type": "uint256"
        },
        {
          "indexed": false,
          "name": "owner",
          "type": "string"
        },
        {
          "indexed": false,
          "name": "recordName",
          "type": "string"
        },
        {
          "indexed": false,
          "name": "desc",
          "type": "string"
        },
        {
          "indexed": false,
          "name": "ipfsInfo",
          "type": "string"
        }
      ],
      "name": "RecordCreate",
      "type": "event",
      "signature": "0xac54b4153639b5a135fa7420710151ebcc9611bdf6cc3e2f62d6fc3a5ba96eab"
    },
    {
      "constant": false,
      "inputs": [
        {
          "name": "_add",
          "type": "string"
        },
        {
          "name": "_name",
          "type": "string"
        },
        {
          "name": "_pass",
          "type": "string"
        },
        {
          "name": "_isDoctor",
          "type": "bool"
        }
      ],
      "name": "createIdentity",
      "outputs": [
        {
          "name": "",
          "type": "uint256"
        }
      ],
      "payable": false,
      "stateMutability": "nonpayable",
      "type": "function",
      "signature": "0xc69ef877"
    },
    {
      "constant": false,
      "inputs": [
        {
          "name": "_add",
          "type": "string"
        },
        {
          "name": "_name",
          "type": "string"
        },
        {
          "name": "_pass",
          "type": "string"
        }
      ],
      "name": "logInIdentity",
      "outputs": [
        {
          "name": "",
          "type": "uint256"
        }
      ],
      "payable": false,
      "stateMutability": "nonpayable",
      "type": "function",
      "signature": "0x6217a3b5"
    },
    {
      "constant": false,
      "inputs": [
        {
          "name": "_adder",
          "type": "string"
        },
        {
          "name": "_ipfsInfo",
          "type": "string"
        },
        {
          "name": "_recordName",
          "type": "string"
        },
        {
          "name": "_desc",
          "type": "string"
        }
      ],
      "name": "createRecord",
      "outputs": [
        {
          "name": "",
          "type": "uint256"
        }
      ],
      "payable": false,
      "stateMutability": "nonpayable",
      "type": "function",
      "signature": "0xb797dcb5"
    },
    {
      "constant": false,
      "inputs": [
        {
          "name": "_addressed",
          "type": "string"
        }
      ],
      "name": "logOut",
      "outputs": [
        {
          "name": "",
          "type": "uint256"
        }
      ],
      "payable": false,
      "stateMutability": "nonpayable",
      "type": "function",
      "signature": "0x2a086b8d"
    },
    {
      "constant": true,
      "inputs": [
        {
          "name": "_ad",
          "type": "string"
        }
      ],
      "name": "getUsername",
      "outputs": [
        {
          "name": "",
          "type": "string"
        }
      ],
      "payable": false,
      "stateMutability": "view",
      "type": "function",
      "signature": "0xfe66d178"
    },
    {
      "constant": true,
      "inputs": [
        {
          "name": "_ader",
          "type": "string"
        }
      ],
      "name": "getRecordCount",
      "outputs": [
        {
          "name": "",
          "type": "uint256"
        }
      ],
      "payable": false,
      "stateMutability": "view",
      "type": "function",
      "signature": "0xc3cef20a"
    },
    {
      "constant": true,
      "inputs": [
        {
          "name": "_adder",
          "type": "string"
        },
        {
          "name": "_ider",
          "type": "uint256"
        }
      ],
      "name": "getRecord",
      "outputs": [
        {
          "name": "",
          "type": "string"
        },
        {
          "name": "",
          "type": "string"
        },
        {
          "name": "",
          "type": "string"
        },
        {
          "name": "",
          "type": "string"
        }
      ],
      "payable": false,
      "stateMutability": "view",
      "type": "function",
      "signature": "0xbc60f6a1"
    },
    {
      "constant": false,
      "inputs": [
        {
          "name": "_adder",
          "type": "string"
        },
        {
          "name": "_ider",
          "type": "uint256"
        },
        {
          "name": "_sendUserName",
          "type": "string"
        }
      ],
      "name": "shareRecord",
      "outputs": [
        {
          "name": "",
          "type": "uint256"
        }
      ],
      "payable": false,
      "stateMutability": "nonpayable",
      "type": "function",
      "signature": "0x482d1cc4"
    }
  ],
  "bytecode": "0x6080604052600060015534801561001557600080fd5b50613efc806100256000396000f3fe6080604052600436106100a4576000357c0100000000000000000000000000000000000000000000000000000000900463ffffffff1680632a086b8d146100a957806338678ba514610185578063482d1cc4146101b05780636217a3b51461032d578063b797dcb514610537578063b8df43ae146107d8578063bc60f6a114610981578063c3cef20a14610c10578063c69ef87714610cec578063fe66d17814610f02575b600080fd5b3480156100b557600080fd5b5061016f600480360360208110156100cc57600080fd5b81019080803590602001906401000000008111156100e957600080fd5b8201836020820111156100fb57600080fd5b8035906020019184600183028401116401000000008311171561011d57600080fd5b91908080601f016020809104026020016040519081016040528093929190818152602001838380828437600081840152601f19601f820116905080830192505050505050509192919290505050611043565b6040518082815260200191505060405180910390f35b34801561019157600080fd5b5061019a6111bf565b6040518082815260200191505060405180910390f35b3480156101bc57600080fd5b50610317600480360360608110156101d357600080fd5b81019080803590602001906401000000008111156101f057600080fd5b82018360208201111561020257600080fd5b8035906020019184600183028401116401000000008311171561022457600080fd5b91908080601f016020809104026020016040519081016040528093929190818152602001838380828437600081840152601f19601f820116905080830192505050505050509192919290803590602001909291908035906020019064010000000081111561029157600080fd5b8201836020820111156102a357600080fd5b803590602001918460018302840111640100000000831117156102c557600080fd5b91908080601f016020809104026020016040519081016040528093929190818152602001838380828437600081840152601f19601f8201169050808301925050505050505091929192905050506111c5565b6040518082815260200191505060405180910390f35b34801561033957600080fd5b506105216004803603606081101561035057600080fd5b810190808035906020019064010000000081111561036d57600080fd5b82018360208201111561037f57600080fd5b803590602001918460018302840111640100000000831117156103a157600080fd5b91908080601f016020809104026020016040519081016040528093929190818152602001838380828437600081840152601f19601f8201169050808301925050505050505091929192908035906020019064010000000081111561040457600080fd5b82018360208201111561041657600080fd5b8035906020019184600183028401116401000000008311171561043857600080fd5b91908080601f016020809104026020016040519081016040528093929190818152602001838380828437600081840152601f19601f8201169050808301925050505050505091929192908035906020019064010000000081111561049b57600080fd5b8201836020820111156104ad57600080fd5b803590602001918460018302840111640100000000831117156104cf57600080fd5b91908080601f016020809104026020016040519081016040528093929190818152602001838380828437600081840152601f19601f820116905080830192505050505050509192919290505050611bbd565b6040518082815260200191505060405180910390f35b34801561054357600080fd5b506107c26004803603608081101561055a57600080fd5b810190808035906020019064010000000081111561057757600080fd5b82018360208201111561058957600080fd5b803590602001918460018302840111640100000000831117156105ab57600080fd5b91908080601f016020809104026020016040519081016040528093929190818152602001838380828437600081840152601f19601f8201169050808301925050505050505091929192908035906020019064010000000081111561060e57600080fd5b82018360208201111561062057600080fd5b8035906020019184600183028401116401000000008311171561064257600080fd5b91908080601f016020809104026020016040519081016040528093929190818152602001838380828437600081840152601f19601f820116905080830192505050505050509192919290803590602001906401000000008111156106a557600080fd5b8201836020820111156106b757600080fd5b803590602001918460018302840111640100000000831117156106d957600080fd5b91908080601f016020809104026020016040519081016040528093929190818152602001838380828437600081840152601f19601f8201169050808301925050505050505091929192908035906020019064010000000081111561073c57600080fd5b82018360208201111561074e57600080fd5b8035906020019184600183028401116401000000008311171561077057600080fd5b91908080601f016020809104026020016040519081016040528093929190818152602001838380828437600081840152601f19601f820116905080830192505050505050509192919290505050611f19565b6040518082815260200191505060405180910390f35b3480156107e457600080fd5b50610811600480360360208110156107fb57600080fd5b81019080803590602001909291905050506123da565b60405180806020018060200180602001878152602001861515151581526020018515151515815260200184810384528a818151815260200191508051906020019080838360005b83811015610873578082015181840152602081019050610858565b50505050905090810190601f1680156108a05780820380516001836020036101000a031916815260200191505b50848103835289818151815260200191508051906020019080838360005b838110156108d95780820151818401526020810190506108be565b50505050905090810190601f1680156109065780820380516001836020036101000a031916815260200191505b50848103825288818151815260200191508051906020019080838360005b8381101561093f578082015181840152602081019050610924565b50505050905090810190601f16801561096c5780820380516001836020036101000a031916815260200191505b50995050505050505050505060405180910390f35b34801561098d57600080fd5b50610a51600480360360408110156109a457600080fd5b81019080803590602001906401000000008111156109c157600080fd5b8201836020820111156109d357600080fd5b803590602001918460018302840111640100000000831117156109f557600080fd5b91908080601f016020809104026020016040519081016040528093929190818152602001838380828437600081840152601f19601f820116905080830192505050505050509192919290803590602001909291905050506125f8565b6040518080602001806020018060200180602001858103855289818151815260200191508051906020019080838360005b83811015610a9d578082015181840152602081019050610a82565b50505050905090810190601f168015610aca5780820380516001836020036101000a031916815260200191505b50858103845288818151815260200191508051906020019080838360005b83811015610b03578082015181840152602081019050610ae8565b50505050905090810190601f168015610b305780820380516001836020036101000a031916815260200191505b50858103835287818151815260200191508051906020019080838360005b83811015610b69578082015181840152602081019050610b4e565b50505050905090810190601f168015610b965780820380516001836020036101000a031916815260200191505b50858103825286818151815260200191508051906020019080838360005b83811015610bcf578082015181840152602081019050610bb4565b50505050905090810190601f168015610bfc5780820380516001836020036101000a031916815260200191505b509850505050505050505060405180910390f35b348015610c1c57600080fd5b50610cd660048036036020811015610c3357600080fd5b8101908080359060200190640100000000811115610c5057600080fd5b820183602082011115610c6257600080fd5b80359060200191846001830284011164010000000083111715610c8457600080fd5b91908080601f016020809104026020016040519081016040528093929190818152602001838380828437600081840152601f19601f820116905080830192505050505050509192919290505050612a4d565b6040518082815260200191505060405180910390f35b348015610cf857600080fd5b50610eec60048036036080811015610d0f57600080fd5b8101908080359060200190640100000000811115610d2c57600080fd5b820183602082011115610d3e57600080fd5b80359060200191846001830284011164010000000083111715610d6057600080fd5b91908080601f016020809104026020016040519081016040528093929190818152602001838380828437600081840152601f19601f82011690508083019250505050505050919291929080359060200190640100000000811115610dc357600080fd5b820183602082011115610dd557600080fd5b80359060200191846001830284011164010000000083111715610df757600080fd5b91908080601f016020809104026020016040519081016040528093929190818152602001838380828437600081840152601f19601f82011690508083019250505050505050919291929080359060200190640100000000811115610e5a57600080fd5b820183602082011115610e6c57600080fd5b80359060200191846001830284011164010000000083111715610e8e57600080fd5b91908080601f016020809104026020016040519081016040528093929190818152602001838380828437600081840152601f19601f820116905080830192505050505050509192919290803515159060200190929190505050612b96565b6040518082815260200191505060405180910390f35b348015610f0e57600080fd5b50610fc860048036036020811015610f2557600080fd5b8101908080359060200190640100000000811115610f4257600080fd5b820183602082011115610f5457600080fd5b80359060200191846001830284011164010000000083111715610f7657600080fd5b91908080601f016020809104026020016040519081016040528093929190818152602001838380828437600081840152601f19601f820116905080830192505050505050509192919290505050612f24565b6040518080602001828103825283818151815260200191508051906020019080838360005b83811015611008578082015181840152602081019050610fed565b50505050905090810190601f1680156110355780820380516001836020036101000a031916815260200191505b509250505060405180910390f35b60008061104f83613105565b90506001151560008083815260200190815260200160002060040160009054906101000a900460ff1615151415156110ef576040517f08c379a00000000000000000000000000000000000000000000000000000000081526004018080602001828103825260148152602001807f506c65617365204c6f6720496e2046697273742100000000000000000000000081525060200191505060405180910390fd5b600080600083815260200190815260200160002060040160006101000a81548160ff0219169083151502179055507f3a218a1720d44ba58a2d37a6e09cb9756b037204eef0948f5ad5a6f4bad66948836040518080602001828103825283818151815260200191508051906020019080838360005b8381101561117f578082015181840152602081019050611164565b50505050905090810190601f1680156111ac5780820380516001836020036101000a031916815260200191505b509250505060405180910390a150919050565b60015481565b60006111d0846132d7565b151515611245576040517f08c379a00000000000000000000000000000000000000000000000000000000081526004018080602001828103825260178152602001807f4164647265737320446f6573204e6f742045786973742100000000000000000081525060200191505060405180910390fd5b606061125085612f24565b9050600061125d86613105565b9050600080828152602001908152602001600020600501600086815260200190815260200160002060020160405160200180828054600181600116156101000203166002900480156112e65780601f106112c45761010080835404028352918201916112e6565b820191906000526020600020905b8154815290600101906020018083116112d2575b505091505060405160208183030381529060405280519060200120826040516020018082805190602001908083835b60208310151561133a5780518252602082019150602081019050602083039250611315565b6001836020036101000a038019825116818451168082178552505050505050905001915050604051602081830303815290604052805190602001201415156113ea576040517f08c379a00000000000000000000000000000000000000000000000000000000081526004018080602001828103825260168152602001807f596f7520617265206e6f7420746865206f776e65722e0000000000000000000081525060200191505060405180910390fd5b6001151560008083815260200190815260200160002060040160009054906101000a900460ff161515141515611488576040517f08c379a00000000000000000000000000000000000000000000000000000000081526004018080602001828103825260148152602001807f506c65617365204c6f6720496e2046697273742100000000000000000000000081525060200191505060405180910390fd5b6060611493856134ae565b905061149e816132d7565b151515611513576040517f08c379a00000000000000000000000000000000000000000000000000000000081526004018080602001828103825260178152602001807f4164647265737320446f6573204e6f742045786973742100000000000000000081525060200191505060405180910390fd5b600061151e82613105565b9050856040516020018082805190602001908083835b6020831015156115595780518252602082019150602081019050602083039250611534565b6001836020036101000a03801982511681845116808217855250505050505090500191505060405160208183030381529060405280519060200120886040516020018082805190602001908083835b6020831015156115cd57805182526020820191506020810190506020830392506115a8565b6001836020036101000a038019825116818451168082178552505050505050905001915050604051602081830303815290604052805190602001201415151561167e576040517f08c379a000000000000000000000000000000000000000000000000000000000815260040180806020018281038252601f8152602001807f43616e6e6f742053656e64205265636f726420546f20596f757273656c66210081525060200191505060405180910390fd5b60008082815260200190815260200160002060030160008154809291906001019190505550600080600083815260200190815260200160002060030154905060c06040519081016040528082815260200143815260200160008087815260200190815260200160002060050160008b81526020019081526020016000206002018054600181600116156101000203166002900480601f0160208091040260200160405190810160405280929190818152602001828054600181600116156101000203166002900480156117925780601f1061176757610100808354040283529160200191611792565b820191906000526020600020905b81548152906001019060200180831161177557829003601f168201915b5050505050815260200160008087815260200190815260200160002060050160008b81526020019081526020016000206003018054600181600116156101000203166002900480601f0160208091040260200160405190810160405280929190818152602001828054600181600116156101000203166002900480156118595780601f1061182e57610100808354040283529160200191611859565b820191906000526020600020905b81548152906001019060200180831161183c57829003601f168201915b5050505050815260200160008087815260200190815260200160002060050160008b81526020019081526020016000206004018054600181600116156101000203166002900480601f0160208091040260200160405190810160405280929190818152602001828054600181600116156101000203166002900480156119205780601f106118f557610100808354040283529160200191611920565b820191906000526020600020905b81548152906001019060200180831161190357829003601f168201915b5050505050815260200160008087815260200190815260200160002060050160008b81526020019081526020016000206005018054600181600116156101000203166002900480601f0160208091040260200160405190810160405280929190818152602001828054600181600116156101000203166002900480156119e75780601f106119bc576101008083540402835291602001916119e7565b820191906000526020600020905b8154815290600101906020018083116119ca57829003601f168201915b5050505050815250600080848152602001908152602001600020600501600083815260200190815260200160002060008201518160000155602082015181600101556040820151816002019080519060200190611a45929190613e2b565b506060820151816003019080519060200190611a62929190613e2b565b506080820151816004019080519060200190611a7f929190613e2b565b5060a0820151816005019080519060200190611a9c929190613e2b565b509050507f5cda285490daf4fa4138400dea6e3aa24950307b674d9c80571d29d87746c619898989604051808060200184815260200180602001838103835286818151815260200191508051906020019080838360005b83811015611b0e578082015181840152602081019050611af3565b50505050905090810190601f168015611b3b5780820380516001836020036101000a031916815260200191505b50838103825284818151815260200191508051906020019080838360005b83811015611b74578082015181840152602081019050611b59565b50505050905090810190601f168015611ba15780820380516001836020036101000a031916815260200191505b509550505050505060405180910390a150505050509392505050565b6000611bc8846132d7565b151515611c3d576040517f08c379a00000000000000000000000000000000000000000000000000000000081526004018080602001828103825260178152602001807f4164647265737320446f6573204e6f742045786973742100000000000000000081525060200191505060405180910390fd5b611c468361372e565b151515611cbb576040517f08c379a00000000000000000000000000000000000000000000000000000000081526004018080602001828103825260148152602001807f4e616d6520446f6573204e6f742045786973742100000000000000000000000081525060200191505060405180910390fd5b611cc6848484613905565b1515611d60576040517f08c379a00000000000000000000000000000000000000000000000000000000081526004018080602001828103825260398152602001807f50726f7669646564204e616d6520416e6420456d61696c20446f204e6f74204281526020017f656c6f6e6720546f2043757272656e742041646472657373210000000000000081525060400191505060405180910390fd5b6000611d6b85613105565b9050600160008083815260200190815260200160002060040160006101000a81548160ff0219169083151502179055507f0b0365c24f419aeb7657449edae73136cc9f177e61ebcf76df29fb025f7c53a785858560405180806020018060200180602001848103845287818151815260200191508051906020019080838360005b83811015611e07578082015181840152602081019050611dec565b50505050905090810190601f168015611e345780820380516001836020036101000a031916815260200191505b50848103835286818151815260200191508051906020019080838360005b83811015611e6d578082015181840152602081019050611e52565b50505050905090810190601f168015611e9a5780820380516001836020036101000a031916815260200191505b50848103825285818151815260200191508051906020019080838360005b83811015611ed3578082015181840152602081019050611eb8565b50505050905090810190601f168015611f005780820380516001836020036101000a031916815260200191505b50965050505050505060405180910390a1509392505050565b6000611f24856132d7565b151515611f99576040517f08c379a00000000000000000000000000000000000000000000000000000000081526004018080602001828103825260178152602001807f4164647265737320446f6573204e6f742045786973742100000000000000000081525060200191505060405180910390fd5b6000611fa486613105565b90506001151560008083815260200190815260200160002060040160009054906101000a900460ff161515141515612044576040517f08c379a00000000000000000000000000000000000000000000000000000000081526004018080602001828103825260148152602001807f506c65617365204c6f6720496e2046697273742100000000000000000000000081525060200191505060405180910390fd5b600080828152602001908152602001600020600301600081548092919060010191905055506000806000838152602001908152602001600020600301549050606061208e88612f24565b905060c06040519081016040528083815260200143815260200182815260200187815260200186815260200188815250600080858152602001908152602001600020600501600084815260200190815260200160002060008201518160000155602082015181600101556040820151816002019080519060200190612114929190613e2b565b506060820151816003019080519060200190612131929190613e2b565b50608082015181600401908051906020019061214e929190613e2b565b5060a082015181600501908051906020019061216b929190613e2b565b509050507fac54b4153639b5a135fa7420710151ebcc9611bdf6cc3e2f62d6fc3a5ba96eab888343848a8a8d60405180806020018881526020018781526020018060200180602001806020018060200186810386528d818151815260200191508051906020019080838360005b838110156121f35780820151818401526020810190506121d8565b50505050905090810190601f1680156122205780820380516001836020036101000a031916815260200191505b5086810385528a818151815260200191508051906020019080838360005b8381101561225957808201518184015260208101905061223e565b50505050905090810190601f1680156122865780820380516001836020036101000a031916815260200191505b50868103845289818151815260200191508051906020019080838360005b838110156122bf5780820151818401526020810190506122a4565b50505050905090810190601f1680156122ec5780820380516001836020036101000a031916815260200191505b50868103835288818151815260200191508051906020019080838360005b8381101561232557808201518184015260208101905061230a565b50505050905090810190601f1680156123525780820380516001836020036101000a031916815260200191505b50868103825287818151815260200191508051906020019080838360005b8381101561238b578082015181840152602081019050612370565b50505050905090810190601f1680156123b85780820380516001836020036101000a031916815260200191505b509c5050505050505050505050505060405180910390a1505050949350505050565b6000602052806000526040600020600091509050806000018054600181600116156101000203166002900480601f0160208091040260200160405190810160405280929190818152602001828054600181600116156101000203166002900480156124865780601f1061245b57610100808354040283529160200191612486565b820191906000526020600020905b81548152906001019060200180831161246957829003601f168201915b505050505090806001018054600181600116156101000203166002900480601f0160208091040260200160405190810160405280929190818152602001828054600181600116156101000203166002900480156125245780601f106124f957610100808354040283529160200191612524565b820191906000526020600020905b81548152906001019060200180831161250757829003601f168201915b505050505090806002018054600181600116156101000203166002900480601f0160208091040260200160405190810160405280929190818152602001828054600181600116156101000203166002900480156125c25780601f10612597576101008083540402835291602001916125c2565b820191906000526020600020905b8154815290600101906020018083116125a557829003601f168201915b5050505050908060030154908060040160009054906101000a900460ff16908060040160019054906101000a900460ff16905086565b606080606080612607866132d7565b15151561267c576040517f08c379a00000000000000000000000000000000000000000000000000000000081526004018080602001828103825260178152602001807f4164647265737320446f6573204e6f742045786973742100000000000000000081525060200191505060405180910390fd5b600061268787613105565b90506001151560008083815260200190815260200160002060040160009054906101000a900460ff161515141515612727576040517f08c379a00000000000000000000000000000000000000000000000000000000081526004018080602001828103825260148152602001807f506c65617365204c6f6720496e2046697273742100000000000000000000000081525060200191505060405180910390fd5b60008082815260200190815260200160002060050160008781526020019081526020016000206002016000808381526020019081526020016000206005016000888152602001908152602001600020600301600080848152602001908152602001600020600501600089815260200190815260200160002060040160008085815260200190815260200160002060050160008a8152602001908152602001600020600501838054600181600116156101000203166002900480601f0160208091040260200160405190810160405280929190818152602001828054600181600116156101000203166002900480156128605780601f1061283557610100808354040283529160200191612860565b820191906000526020600020905b81548152906001019060200180831161284357829003601f168201915b50505050509350828054600181600116156101000203166002900480601f0160208091040260200160405190810160405280929190818152602001828054600181600116156101000203166002900480156128fc5780601f106128d1576101008083540402835291602001916128fc565b820191906000526020600020905b8154815290600101906020018083116128df57829003601f168201915b50505050509250818054600181600116156101000203166002900480601f0160208091040260200160405190810160405280929190818152602001828054600181600116156101000203166002900480156129985780601f1061296d57610100808354040283529160200191612998565b820191906000526020600020905b81548152906001019060200180831161297b57829003601f168201915b50505050509150808054600181600116156101000203166002900480601f016020809104026020016040519081016040528092919081815260200182805460018160011615610100020316600290048015612a345780601f10612a0957610100808354040283529160200191612a34565b820191906000526020600020905b815481529060010190602001808311612a1757829003601f168201915b5050505050905094509450945094505092959194509250565b6000612a58826132d7565b151515612acd576040517f08c379a00000000000000000000000000000000000000000000000000000000081526004018080602001828103825260178152602001807f4164647265737320446f6573204e6f742045786973742100000000000000000081525060200191505060405180910390fd5b6000612ad883613105565b90506001151560008083815260200190815260200160002060040160009054906101000a900460ff161515141515612b78576040517f08c379a00000000000000000000000000000000000000000000000000000000081526004018080602001828103825260148152602001807f506c65617365204c6f6720496e2046697273742100000000000000000000000081525060200191505060405180910390fd5b60008082815260200190815260200160002060030154915050919050565b6000612ba1856132d7565b1515612c15576040517f08c379a00000000000000000000000000000000000000000000000000000000081526004018080602001828103825260178152602001807f4164647265737320416c7265616479204578697374732100000000000000000081525060200191505060405180910390fd5b612c1e8461372e565b1515612c92576040517f08c379a00000000000000000000000000000000000000000000000000000000081526004018080602001828103825260188152602001807f55736572204e616d6520416c72656164792054616b656e21000000000000000081525060200191505060405180910390fd5b60016000815480929190600101919050555060c0604051908101604052808681526020018581526020018481526020016000815260200160011515815260200183151581525060008060015481526020019081526020016000206000820151816000019080519060200190612d08929190613e2b565b506020820151816001019080519060200190612d25929190613e2b565b506040820151816002019080519060200190612d42929190613e2b565b506060820151816003015560808201518160040160006101000a81548160ff02191690831515021790555060a08201518160040160016101000a81548160ff0219169083151502179055509050507f9d9904bda864774357f0872c99a670c668ba10e89b08f76a945b247cd3b8a509600154868686866040518086815260200180602001806020018060200185151515158152602001848103845288818151815260200191508051906020019080838360005b83811015612e10578082015181840152602081019050612df5565b50505050905090810190601f168015612e3d5780820380516001836020036101000a031916815260200191505b50848103835287818151815260200191508051906020019080838360005b83811015612e76578082015181840152602081019050612e5b565b50505050905090810190601f168015612ea35780820380516001836020036101000a031916815260200191505b50848103825286818151815260200191508051906020019080838360005b83811015612edc578082015181840152602081019050612ec1565b50505050905090810190601f168015612f095780820380516001836020036101000a031916815260200191505b509850505050505050505060405180910390a1949350505050565b6060612f2f826132d7565b151515612fa4576040517f08c379a00000000000000000000000000000000000000000000000000000000081526004018080602001828103825260178152602001807f4164647265737320446f6573204e6f742045786973742100000000000000000081525060200191505060405180910390fd5b6000612faf83613105565b90506001151560008083815260200190815260200160002060040160009054906101000a900460ff16151514151561304f576040517f08c379a00000000000000000000000000000000000000000000000000000000081526004018080602001828103825260148152602001807f506c65617365204c6f6720496e2046697273742100000000000000000000000081525060200191505060405180910390fd5b6000808281526020019081526020016000206001018054600181600116156101000203166002900480601f0160208091040260200160405190810160405280929190818152602001828054600181600116156101000203166002900480156130f85780601f106130cd576101008083540402835291602001916130f8565b820191906000526020600020905b8154815290600101906020018083116130db57829003601f168201915b5050505050915050919050565b600080600190505b600154811115156132d05760606000808381526020019081526020016000206000018054600181600116156101000203166002900480601f0160208091040260200160405190810160405280929190818152602001828054600181600116156101000203166002900480156131c35780601f10613198576101008083540402835291602001916131c3565b820191906000526020600020905b8154815290600101906020018083116131a657829003601f168201915b50505050509050836040516020018082805190602001908083835b60208310151561320357805182526020820191506020810190506020830392506131de565b6001836020036101000a03801982511681845116808217855250505050505090500191505060405160208183030381529060405280519060200120816040516020018082805190602001908083835b6020831015156132775780518252602082019150602081019050602083039250613252565b6001836020036101000a0380198251168184511680821785525050505050509050019150506040516020818303038152906040528051906020012014156132c25781925050506132d2565b50808060010191505061310d565b505b919050565b600080600190505b600154811115156134a35760606000808381526020019081526020016000206000018054600181600116156101000203166002900480601f0160208091040260200160405190810160405280929190818152602001828054600181600116156101000203166002900480156133955780601f1061336a57610100808354040283529160200191613395565b820191906000526020600020905b81548152906001019060200180831161337857829003601f168201915b50505050509050836040516020018082805190602001908083835b6020831015156133d557805182526020820191506020810190506020830392506133b0565b6001836020036101000a03801982511681845116808217855250505050505090500191505060405160208183030381529060405280519060200120816040516020018082805190602001908083835b6020831015156134495780518252602082019150602081019050602083039250613424565b6001836020036101000a038019825116818451168082178552505050505050905001915050604051602081830303815290604052805190602001201415613495576000925050506134a9565b5080806001019150506132df565b50600190505b919050565b60606000600190505b600154811115156137275760606000808381526020019081526020016000206001018054600181600116156101000203166002900480601f01602080910402602001604051908101604052809291908181526020018280546001816001161561010002031660029004801561356d5780601f106135425761010080835404028352916020019161356d565b820191906000526020600020905b81548152906001019060200180831161355057829003601f168201915b50505050509050836040516020018082805190602001908083835b6020831015156135ad5780518252602082019150602081019050602083039250613588565b6001836020036101000a03801982511681845116808217855250505050505090500191505060405160208183030381529060405280519060200120816040516020018082805190602001908083835b60208310151561362157805182526020820191506020810190506020830392506135fc565b6001836020036101000a038019825116818451168082178552505050505050905001915050604051602081830303815290604052805190602001201415613719576000808381526020019081526020016000206000018054600181600116156101000203166002900480601f01602080910402602001604051908101604052809291908181526020018280546001816001161561010002031660029004801561370b5780601f106136e05761010080835404028352916020019161370b565b820191906000526020600020905b8154815290600101906020018083116136ee57829003601f168201915b505050505092505050613729565b5080806001019150506134b7565b505b919050565b600080600190505b600154811115156138fa5760606000808381526020019081526020016000206001018054600181600116156101000203166002900480601f0160208091040260200160405190810160405280929190818152602001828054600181600116156101000203166002900480156137ec5780601f106137c1576101008083540402835291602001916137ec565b820191906000526020600020905b8154815290600101906020018083116137cf57829003601f168201915b50505050509050836040516020018082805190602001908083835b60208310151561382c5780518252602082019150602081019050602083039250613807565b6001836020036101000a03801982511681845116808217855250505050505090500191505060405160208183030381529060405280519060200120816040516020018082805190602001908083835b6020831015156138a0578051825260208201915060208101905060208303925061387b565b6001836020036101000a0380198251168184511680821785525050505050509050019150506040516020818303038152906040528051906020012014156138ec57600092505050613900565b508080600101915050613736565b50600190505b919050565b600080600190505b60015481111515613e1e5760606000808381526020019081526020016000206000018054600181600116156101000203166002900480601f0160208091040260200160405190810160405280929190818152602001828054600181600116156101000203166002900480156139c35780601f10613998576101008083540402835291602001916139c3565b820191906000526020600020905b8154815290600101906020018083116139a657829003601f168201915b50505050509050856040516020018082805190602001908083835b602083101515613a0357805182526020820191506020810190506020830392506139de565b6001836020036101000a03801982511681845116808217855250505050505090500191505060405160208183030381529060405280519060200120816040516020018082805190602001908083835b602083101515613a775780518252602082019150602081019050602083039250613a52565b6001836020036101000a038019825116818451168082178552505050505050905001915050604051602081830303815290604052805190602001201415613e105760606000808481526020019081526020016000206001018054600181600116156101000203166002900480601f016020809104026020016040519081016040528092919081815260200182805460018160011615610100020316600290048015613b635780601f10613b3857610100808354040283529160200191613b63565b820191906000526020600020905b815481529060010190602001808311613b4657829003601f168201915b5050505050905060606000808581526020019081526020016000206002018054600181600116156101000203166002900480601f016020809104026020016040519081016040528092919081815260200182805460018160011615610100020316600290048015613c155780601f10613bea57610100808354040283529160200191613c15565b820191906000526020600020905b815481529060010190602001808311613bf857829003601f168201915b50505050509050866040516020018082805190602001908083835b602083101515613c555780518252602082019150602081019050602083039250613c30565b6001836020036101000a03801982511681845116808217855250505050505090500191505060405160208183030381529060405280519060200120826040516020018082805190602001908083835b602083101515613cc95780518252602082019150602081019050602083039250613ca4565b6001836020036101000a03801982511681845116808217855250505050505090500191505060405160208183030381529060405280519060200120148015613df65750856040516020018082805190602001908083835b602083101515613d455780518252602082019150602081019050602083039250613d20565b6001836020036101000a03801982511681845116808217855250505050505090500191505060405160208183030381529060405280519060200120816040516020018082805190602001908083835b602083101515613db95780518252602082019150602081019050602083039250613d94565b6001836020036101000a03801982511681845116808217855250505050505090500191505060405160208183030381529060405280519060200120145b15613e08576001945050505050613e24565b505050613e1e565b50808060010191505061390d565b50600090505b9392505050565b828054600181600116156101000203166002900490600052602060002090601f016020900481019282601f10613e6c57805160ff1916838001178555613e9a565b82800160010185558215613e9a579182015b82811115613e99578251825591602001919060010190613e7e565b5b509050613ea79190613eab565b5090565b613ecd91905b80821115613ec9576000816000905550600101613eb1565b5090565b9056fea165627a7a723058204b60093899bac57541cf3bd278acd68d7cf45a615d3cb97ffe4cc65a86735b2d0029",
  "source": "pragma solidity >=0.4.21 <0.7.0;\r\nimport \"./RecordLibrary.sol\";\r\n\r\ncontract RecordTracker {\r\n\r\n    mapping(uint => RecordLibrary.Identity) public IdentityStore;\r\n    uint256 public identityCount= 0;\r\n\r\n    function createIdentity(string memory _add, string memory _name, string memory _pass, bool _isDoctor) public returns (uint256)\r\n    {\r\n        require(canAddExist(_add), \"Address Already Exists!\");\r\n        require(canNameExist(_name), \"User Name Already Taken!\");\r\n        identityCount++;\r\n        IdentityStore[identityCount] = RecordLibrary.Identity(_add,_name,_pass,0,true,_isDoctor);\r\n        emit IdentityCreate(identityCount,_add,_name,_pass,_isDoctor);\r\n    }\r\n\r\n    function logInIdentity(string memory _add, string memory _name, string memory _pass) public returns (uint256)\r\n    {\r\n        require(!canAddExist(_add), \"Address Does Not Exist!\");\r\n        require(!canNameExist(_name), \"Name Does Not Exist!\");\r\n        require(doesAccExist(_add,_name,_pass), \"Provided Name And Email Do Not Belong To Current Address!\");\r\n        uint ind = getAddIndex(_add);\r\n        IdentityStore[ind].isLoggedIn = true;\r\n        emit LogIn(_add,_name,_pass);\r\n    }\r\n\r\n    function createRecord(string memory _adder, string memory _ipfsInfo, string memory _recordName, string memory _desc) public returns(uint256)\r\n    {\r\n        require(!canAddExist(_adder), \"Address Does Not Exist!\");\r\n        uint index = getAddIndex(_adder);\r\n        require(IdentityStore[index].isLoggedIn == true, \"Please Log In First!\");\r\n        IdentityStore[index].recordCount++;\r\n        uint recordIndex = IdentityStore[index].recordCount;\r\n        string memory _owner = getUsername(_adder);\r\n        IdentityStore[index].record[recordIndex] = RecordLibrary.Record(recordIndex,block.number,_owner,_recordName,_desc,_ipfsInfo);\r\n        emit RecordCreate(_adder,recordIndex,block.number,_owner,_recordName,_desc,_ipfsInfo);\r\n    }\r\n\r\n    function doesAccExist(string memory _adder, string memory _namer, string memory _passer) private view returns (bool)\r\n    {\r\n        for(uint i = 1;i<=identityCount;i++)\r\n        {\r\n            string memory acc = IdentityStore[i].add;\r\n            if(keccak256(abi.encodePacked((acc))) == keccak256(abi.encodePacked((_adder))))\r\n            {\r\n                string memory name1 = IdentityStore[i].name;\r\n                string memory email1 = IdentityStore[i].pass;\r\n                if((keccak256(abi.encodePacked((name1))) == keccak256(abi.encodePacked((_namer))))&&(keccak256(abi.encodePacked((email1))) == keccak256(abi.encodePacked((_passer)))))\r\n                {\r\n                    return true;\r\n                }\r\n                break;\r\n            }\r\n        }\r\n        return false;\r\n    }\r\n\r\n    function getAddFromName(string memory _userNamer) private view returns (string memory)\r\n    {\r\n        for(uint i = 1;i<=identityCount;i++)\r\n        {\r\n            string memory acc = IdentityStore[i].name;\r\n            if(keccak256(abi.encodePacked((acc))) == keccak256(abi.encodePacked((_userNamer))))\r\n            {\r\n                return IdentityStore[i].add;\r\n            }\r\n        }\r\n    }\r\n\r\n    function getAddIndex(string memory _adder) private view returns (uint)\r\n    {\r\n        for(uint i = 1;i<=identityCount;i++)\r\n        {\r\n            string memory acc = IdentityStore[i].add;\r\n            if(keccak256(abi.encodePacked((acc))) == keccak256(abi.encodePacked((_adder))))\r\n            {\r\n                return i;\r\n            }\r\n        }\r\n    }\r\n\r\n    function canAddExist(string memory _adder) private view returns (bool)\r\n    {\r\n        for(uint i = 1;i<=identityCount;i++)\r\n        {\r\n            string memory acc = IdentityStore[i].add;\r\n            if(keccak256(abi.encodePacked((acc))) == keccak256(abi.encodePacked((_adder))))\r\n            {\r\n                return false;\r\n            }\r\n        }\r\n        return true;\r\n    }\r\n\r\n    function canNameExist(string memory _namer) private view returns (bool)\r\n    {\r\n        for(uint i = 1;i<=identityCount;i++)\r\n        {\r\n            string memory acc1 = IdentityStore[i].name;\r\n            if(keccak256(abi.encodePacked((acc1))) == keccak256(abi.encodePacked((_namer))))\r\n            {\r\n                return false;\r\n            }\r\n        }\r\n        return true;\r\n    }\r\n\r\n    function logOut(string memory _addressed) public returns (uint256)\r\n    {\r\n        uint index = getAddIndex(_addressed);\r\n        require(IdentityStore[index].isLoggedIn == true, \"Please Log In First!\");\r\n        IdentityStore[index].isLoggedIn = false;\r\n        emit LogOut(_addressed);\r\n    }\r\n\r\n    function getUsername(string memory _ad) public view returns (string memory)\r\n    {\r\n        require(!canAddExist(_ad), \"Address Does Not Exist!\");\r\n        uint indexer = getAddIndex(_ad);\r\n        require(IdentityStore[indexer].isLoggedIn == true, \"Please Log In First!\");\r\n        return IdentityStore[indexer].name;\r\n    }\r\n\r\n    function getRecordCount(string memory _ader) public view returns (uint)\r\n    {\r\n        require(!canAddExist(_ader), \"Address Does Not Exist!\");\r\n        uint indexer = getAddIndex(_ader);\r\n        require(IdentityStore[indexer].isLoggedIn == true, \"Please Log In First!\");\r\n        return IdentityStore[indexer].recordCount;\r\n    }\r\n\r\n    function getRecord(string memory _adder, uint _ider) public view returns (string memory, string memory, string memory, string memory)\r\n    {\r\n        require(!canAddExist(_adder), \"Address Does Not Exist!\");\r\n        uint indexer = getAddIndex(_adder);\r\n        require(IdentityStore[indexer].isLoggedIn == true, \"Please Log In First!\");\r\n        return(IdentityStore[indexer].record[_ider].owner,\r\n            IdentityStore[indexer].record[_ider].recordName,\r\n            IdentityStore[indexer].record[_ider].desc,\r\n            IdentityStore[indexer].record[_ider].ipfsInfo);\r\n    }\r\n\r\n    function shareRecord(string memory _adder, uint _ider, string memory _sendUserName) public returns (uint256)\r\n    {\r\n        require(!canAddExist(_adder), \"Address Does Not Exist!\");\r\n        string memory _own = getUsername(_adder);\r\n        uint indexer = getAddIndex(_adder);\r\n        require(keccak256(abi.encodePacked((_own))) == keccak256(abi.encodePacked((IdentityStore[indexer].record[_ider].owner))),\"You are not the owner.\");\r\n        require(IdentityStore[indexer].isLoggedIn == true, \"Please Log In First!\");\r\n        string memory addSend = getAddFromName(_sendUserName);\r\n        require(!canAddExist(addSend), \"Address Does Not Exist!\");\r\n        uint indexee = getAddIndex(addSend);\r\n        require(keccak256(abi.encodePacked((_adder))) != keccak256(abi.encodePacked((_sendUserName))), \"Cannot Send Record To Yourself!\");\r\n        IdentityStore[indexee].recordCount++;\r\n        uint recordIndexee = IdentityStore[indexee].recordCount;\r\n        IdentityStore[indexee].record[recordIndexee] = RecordLibrary.Record(recordIndexee,block.number,\r\n        IdentityStore[indexer].record[_ider].owner,\r\n        IdentityStore[indexer].record[_ider].recordName,\r\n        IdentityStore[indexer].record[_ider].desc,\r\n        IdentityStore[indexer].record[_ider].ipfsInfo);\r\n        emit RecordShare(_adder,_ider,_sendUserName);\r\n    }\r\n\r\n    event RecordShare(string adder,uint ider,string sendUserName);\r\n    event LogOut(string addressed);\r\n    event IdentityCreate(uint id, string add, string name, string pass, bool isDoctor);\r\n    event LogIn(string add, string name, string pass);\r\n    event RecordCreate(string add,uint id, uint time, string owner, string recordName, string desc, string ipfsInfo);\r\n}",
  "sourcePath": "D:/MedicalRecord/contracts/RecordTracker.sol",
  "compiler": {
    "name": "solc",
    "version": "0.5.0+commit.1d4f565a.Emscripten.clang"
  },
  "schemaVersion": "3.0.1",
  "updatedAt": "2020-03-16T08:12:36.273Z",
  "devdoc": {
    "methods": {}
  },
  "userdoc": {
    "methods": {}
  }
}